{
    "contractName": "Deployer",
    "abi": [
        {
            "anonymous": false,
            "inputs": [
                {
                    "indexed": false,
                    "internalType": "address",
                    "name": "addr",
                    "type": "address"
                },
                {
                    "indexed": false,
                    "internalType": "uint256",
                    "name": "salt",
                    "type": "uint256"
                }
            ],
            "name": "Deployed",
            "type": "event"
        },
        {
            "inputs": [
                {
                    "internalType": "bytes",
                    "name": "code",
                    "type": "bytes"
                },
                {
                    "internalType": "uint256",
                    "name": "salt",
                    "type": "uint256"
                }
            ],
            "name": "deploy",
            "outputs": [],
            "stateMutability": "nonpayable",
            "type": "function"
        }
    ],
    "bytecode": "608060405234801561001057600080fd5b506101a6806100206000396000f3fe608060405234801561001057600080fd5b506004361061002b5760003560e01c80639c4ae2d014610030575b600080fd5b61004361003e3660046100bb565b610045565b005b6000818351602085016000f59050803b61005e57600080fd5b604080516001600160a01b0383168152602081018490527fb03c53b28e78a88e31607a27e1fa48234dce28d5d9d9ec7b295aeb02e674a1e1910160405180910390a1505050565b634e487b7160e01b600052604160045260246000fd5b600080604083850312156100ce57600080fd5b823567ffffffffffffffff808211156100e657600080fd5b818501915085601f8301126100fa57600080fd5b81358181111561010c5761010c6100a5565b604051601f8201601f19908116603f01168101908382118183101715610134576101346100a5565b8160405282815288602084870101111561014d57600080fd5b82602086016020830137600060209382018401529896909101359650505050505056fea26469706673582212207caacd01b3eacc5779955d83b2736cf7a799106bbb9a74f3f66dfd977169cbf764736f6c634300080f0033",
    "sourcePath": "/Users/ammon/Documents/GitHub/hardhat-template/contracts/Deployer.sol",
    "compiler": {
        "name": "solc",
        "version": "0.8.15+commit.e14f2714"
    },
    "functionHashes": {
        "deploy(bytes,uint256)": "9c4ae2d0"
    },
    "gasEstimates": {
        "creation": {
            "codeDepositCost": "84400",
            "executionCost": "135",
            "totalCost": "84535"
        },
        "external": {
            "deploy(bytes,uint256)": "infinite"
        }
    }
}